:020000000F28C7
:10000800CE00030E83128C0004088D000A088E00AF
:100018004F088F00FB280729403083168100FF30E6
:1000280083129B001B08A4001A281A280130A40276
:100038002408FF3A031D212822281A282328523091
:100048009B001B089D001F309B001B0896001D305D
:100058009C001C0897000130B820FF3083129B00D9
:100068001B08A400382838280130A4022408FF3AC5
:10007800031D3F2840283828412869309B001B0869
:100088009D009E0103309B001B089F0069309B0068
:100098001B08A000A10125309B001B08A200A3019A
:1000A8003F309B001B08A40020309B001B089600D3
:1000B8001D309C001C0897000830B82083129D0151
:1000C80040309B001B089E009F0102309B001B08CC
:1000D800A0002A309B001B0896001D309C001C08BD
:1000E80097000430B82078286300782878280F28EB
:1000F8008312930095010830910011089400940828
:10010800031D872888288A28B528B528931F8D2895
:100118008E2890288614922886109228E12083122F
:100128001308910011079200120893001508910016
:1001380011079200120895000615061CA428A52888
:10014800AA280130910011089507AA28E1208312F6
:100158000611013094029408031DB328B4288A2894
:10016800B5281508B728080083129A00EF200A302E
:100178007C20831298001808990016087C208312A6
:10018800980018089900D6281708840083130008D7
:100198007C208312980018089900013098001808EC
:1001A8009707D62801309A021A08FF3A031DDD285E
:1001B800DE28C828DF2811210800831290010314C3
:1001C800900DE728E72801309002031DEC28ED2860
:1001D800E728EE28080083120611831606118312F9
:1001E80086118316861106148610E12008008B10EC
:1001F8000F08CF000E088A000D0884000C0E83003B
:10020800CE0E4E0E09009D019E019F01A001A10185
:10021800A201A301A4018301102883128615E120FD
:020228000800CC
:02400E00F2FFBF
:00000001FF
